{
  "contractName": "EthSwap",
  "abi": [
    {
      "anonymous": false,
      "inputs": [
        {
          "indexed": true,
          "internalType": "address",
          "name": "user",
          "type": "address"
        },
        {
          "indexed": false,
          "internalType": "uint256",
          "name": "amount",
          "type": "uint256"
        },
        {
          "indexed": false,
          "internalType": "uint256",
          "name": "index",
          "type": "uint256"
        },
        {
          "indexed": false,
          "internalType": "uint256",
          "name": "timestamp",
          "type": "uint256"
        }
      ],
      "name": "Staked",
      "type": "event"
    },
    {
      "anonymous": false,
      "inputs": [
        {
          "indexed": false,
          "internalType": "address",
          "name": "account",
          "type": "address"
        },
        {
          "indexed": false,
          "internalType": "address",
          "name": "token",
          "type": "address"
        },
        {
          "indexed": false,
          "internalType": "uint256",
          "name": "amount",
          "type": "uint256"
        },
        {
          "indexed": false,
          "internalType": "uint256",
          "name": "rateFtp",
          "type": "uint256"
        }
      ],
      "name": "TokensPurchased",
      "type": "event"
    },
    {
      "inputs": [],
      "name": "countIntrest",
      "outputs": [
        {
          "internalType": "uint256",
          "name": "",
          "type": "uint256"
        }
      ],
      "stateMutability": "view",
      "type": "function",
      "constant": true
    },
    {
      "inputs": [],
      "name": "currentTime",
      "outputs": [
        {
          "internalType": "uint256",
          "name": "",
          "type": "uint256"
        }
      ],
      "stateMutability": "view",
      "type": "function",
      "constant": true
    },
    {
      "inputs": [],
      "name": "incentiveAmount",
      "outputs": [
        {
          "internalType": "uint256",
          "name": "",
          "type": "uint256"
        }
      ],
      "stateMutability": "view",
      "type": "function",
      "constant": true
    },
    {
      "inputs": [
        {
          "internalType": "address",
          "name": "",
          "type": "address"
        }
      ],
      "name": "isStaking",
      "outputs": [
        {
          "internalType": "bool",
          "name": "",
          "type": "bool"
        }
      ],
      "stateMutability": "view",
      "type": "function",
      "constant": true
    },
    {
      "inputs": [],
      "name": "name",
      "outputs": [
        {
          "internalType": "string",
          "name": "",
          "type": "string"
        }
      ],
      "stateMutability": "view",
      "type": "function",
      "constant": true
    },
    {
      "inputs": [],
      "name": "oneDay",
      "outputs": [
        {
          "internalType": "uint256",
          "name": "",
          "type": "uint256"
        }
      ],
      "stateMutability": "view",
      "type": "function",
      "constant": true
    },
    {
      "inputs": [],
      "name": "sixMonth",
      "outputs": [
        {
          "internalType": "uint256",
          "name": "",
          "type": "uint256"
        }
      ],
      "stateMutability": "view",
      "type": "function",
      "constant": true
    },
    {
      "inputs": [
        {
          "internalType": "uint256",
          "name": "",
          "type": "uint256"
        }
      ],
      "name": "stakeholders",
      "outputs": [
        {
          "internalType": "address",
          "name": "user",
          "type": "address"
        }
      ],
      "stateMutability": "view",
      "type": "function",
      "constant": true
    },
    {
      "inputs": [
        {
          "internalType": "uint256",
          "name": "",
          "type": "uint256"
        }
      ],
      "name": "stakers",
      "outputs": [
        {
          "internalType": "address",
          "name": "",
          "type": "address"
        }
      ],
      "stateMutability": "view",
      "type": "function",
      "constant": true
    },
    {
      "inputs": [
        {
          "internalType": "address",
          "name": "",
          "type": "address"
        }
      ],
      "name": "stakes",
      "outputs": [
        {
          "internalType": "uint256",
          "name": "",
          "type": "uint256"
        }
      ],
      "stateMutability": "view",
      "type": "function",
      "constant": true
    },
    {
      "inputs": [
        {
          "internalType": "address",
          "name": "",
          "type": "address"
        }
      ],
      "name": "stakingBalance",
      "outputs": [
        {
          "internalType": "uint256",
          "name": "",
          "type": "uint256"
        }
      ],
      "stateMutability": "view",
      "type": "function",
      "constant": true
    },
    {
      "inputs": [],
      "name": "timeDiffrence",
      "outputs": [
        {
          "internalType": "uint256",
          "name": "",
          "type": "uint256"
        }
      ],
      "stateMutability": "view",
      "type": "function",
      "constant": true
    },
    {
      "inputs": [],
      "name": "token",
      "outputs": [
        {
          "internalType": "contract IERC20",
          "name": "",
          "type": "address"
        }
      ],
      "stateMutability": "view",
      "type": "function",
      "constant": true
    },
    {
      "inputs": [],
      "name": "twelveMonth",
      "outputs": [
        {
          "internalType": "uint256",
          "name": "",
          "type": "uint256"
        }
      ],
      "stateMutability": "view",
      "type": "function",
      "constant": true
    },
    {
      "inputs": [],
      "name": "twentyFourMonth",
      "outputs": [
        {
          "internalType": "uint256",
          "name": "",
          "type": "uint256"
        }
      ],
      "stateMutability": "view",
      "type": "function",
      "constant": true
    },
    {
      "inputs": [],
      "name": "unstakeAmount",
      "outputs": [
        {
          "internalType": "uint256",
          "name": "",
          "type": "uint256"
        }
      ],
      "stateMutability": "view",
      "type": "function",
      "constant": true
    },
    {
      "inputs": [
        {
          "internalType": "contract IERC20",
          "name": "_token",
          "type": "address"
        },
        {
          "internalType": "string",
          "name": "_name",
          "type": "string"
        },
        {
          "internalType": "uint256",
          "name": "_oneDay",
          "type": "uint256"
        },
        {
          "internalType": "uint256",
          "name": "_sixMonth",
          "type": "uint256"
        },
        {
          "internalType": "uint256",
          "name": "_twelveMonth",
          "type": "uint256"
        },
        {
          "internalType": "uint256",
          "name": "_twentyFourMonth",
          "type": "uint256"
        },
        {
          "internalType": "address",
          "name": "_adminWalletAddress",
          "type": "address"
        }
      ],
      "name": "storeConstructor",
      "outputs": [],
      "stateMutability": "nonpayable",
      "type": "function"
    },
    {
      "inputs": [],
      "name": "getBalance",
      "outputs": [
        {
          "internalType": "uint256",
          "name": "",
          "type": "uint256"
        }
      ],
      "stateMutability": "view",
      "type": "function",
      "constant": true
    },
    {
      "inputs": [
        {
          "internalType": "address payable",
          "name": "recipient",
          "type": "address"
        }
      ],
      "name": "adminWithdraw",
      "outputs": [],
      "stateMutability": "payable",
      "type": "function",
      "payable": true
    },
    {
      "inputs": [
        {
          "internalType": "address payable",
          "name": "recipient",
          "type": "address"
        }
      ],
      "name": "adminWithdrawToken",
      "outputs": [],
      "stateMutability": "payable",
      "type": "function",
      "payable": true
    },
    {
      "inputs": [
        {
          "internalType": "uint256",
          "name": "_liveRate",
          "type": "uint256"
        }
      ],
      "name": "buyTokens",
      "outputs": [],
      "stateMutability": "payable",
      "type": "function",
      "payable": true
    },
    {
      "inputs": [
        {
          "internalType": "uint256",
          "name": "_amount",
          "type": "uint256"
        },
        {
          "internalType": "uint256",
          "name": "status",
          "type": "uint256"
        }
      ],
      "name": "stakeTokens",
      "outputs": [],
      "stateMutability": "nonpayable",
      "type": "function"
    },
    {
      "inputs": [
        {
          "internalType": "uint256",
          "name": "index",
          "type": "uint256"
        }
      ],
      "name": "_withdrawStake",
      "outputs": [
        {
          "internalType": "uint256",
          "name": "",
          "type": "uint256"
        }
      ],
      "stateMutability": "nonpayable",
      "type": "function"
    }
  ],
  "bytecode": "0x608060405234801561001057600080fd5b5061201f806100206000396000f3fe6080604052600436106101405760003560e01c80636118fa9f116100b6578063be4d0ede1161006f578063be4d0ede14610458578063cae5d73b14610483578063d18e81b3146104ae578063fc0c546a146104d9578063fd5e6dd114610504578063fee9d13b1461054157610140565b80636118fa9f146103535780636f49712b1461037e578063986feefa146103bb57806399e1dcc3146103e6578063a28835b614610411578063a41409c81461042d57610140565b80633610724e116101085780633610724e146102405780633b7b61881461025c5780633bc7b5f61461028557806345b70198146102ae57806345bc78ab146102eb5780634bd9351b1461032857610140565b806306fdde031461014557806312065fe01461017057806316934fc41461019b5780631d6b8b72146101d85780631fa58c2614610215575b600080fd5b34801561015157600080fd5b5061015a61055d565b6040516101679190611b5f565b60405180910390f35b34801561017c57600080fd5b506101856105eb565b6040516101929190611bc1565b60405180910390f35b3480156101a757600080fd5b506101c260048036038101906101bd91906117b5565b6105f3565b6040516101cf9190611bc1565b60405180910390f35b3480156101e457600080fd5b506101ff60048036038101906101fa91906118e6565b61060b565b60405161020c9190611a69565b60405180910390f35b34801561022157600080fd5b5061022a610659565b6040516102379190611bc1565b60405180910390f35b61025a600480360381019061025591906118e6565b61065f565b005b34801561026857600080fd5b50610283600480360381019061027e9190611938565b610839565b005b34801561029157600080fd5b506102ac60048036038101906102a79190611830565b610c05565b005b3480156102ba57600080fd5b506102d560048036038101906102d091906118e6565b610ce1565b6040516102e29190611bc1565b60405180910390f35b3480156102f757600080fd5b50610312600480360381019061030d91906117b5565b611169565b60405161031f9190611bc1565b60405180910390f35b34801561033457600080fd5b5061033d611181565b60405161034a9190611bc1565b60405180910390f35b34801561035f57600080fd5b50610368611187565b6040516103759190611bc1565b60405180910390f35b34801561038a57600080fd5b506103a560048036038101906103a091906117b5565b61118d565b6040516103b29190611b29565b60405180910390f35b3480156103c757600080fd5b506103d06111ad565b6040516103dd9190611bc1565b60405180910390f35b3480156103f257600080fd5b506103fb6111b3565b6040516104089190611bc1565b60405180910390f35b61042b600480360381019061042691906117de565b6111b9565b005b34801561043957600080fd5b50610442611293565b60405161044f9190611bc1565b60405180910390f35b34801561046457600080fd5b5061046d611299565b60405161047a9190611bc1565b60405180910390f35b34801561048f57600080fd5b5061049861129f565b6040516104a59190611bc1565b60405180910390f35b3480156104ba57600080fd5b506104c36112a5565b6040516104d09190611bc1565b60405180910390f35b3480156104e557600080fd5b506104ee6112ab565b6040516104fb9190611b44565b60405180910390f35b34801561051057600080fd5b5061052b600480360381019061052691906118e6565b6112d1565b6040516105389190611a69565b60405180910390f35b61055b600480360381019061055691906117de565b611310565b005b6000805461056a90611e77565b80601f016020809104026020016040519081016040528092919081815260200182805461059690611e77565b80156105e35780601f106105b8576101008083540402835291602001916105e3565b820191906000526020600020905b8154815290600101906020018083116105c657829003601f168201915b505050505081565b600047905090565b600f6020528060005260406000206000915090505481565b6010818154811061061b57600080fd5b90600052602060002090600202016000915090508060000160009054906101000a900473ffffffffffffffffffffffffffffffffffffffff16905081565b60015481565b6000813461066d9190611d17565b905080600a60009054906101000a900473ffffffffffffffffffffffffffffffffffffffff1673ffffffffffffffffffffffffffffffffffffffff166370a08231306040518263ffffffff1660e01b81526004016106cb9190611a69565b60206040518083038186803b1580156106e357600080fd5b505afa1580156106f7573d6000803e3d6000fd5b505050506040513d601f19601f8201168201806040525081019061071b919061190f565b101561072657600080fd5b600a60009054906101000a900473ffffffffffffffffffffffffffffffffffffffff1673ffffffffffffffffffffffffffffffffffffffff1663a9059cbb33836040518363ffffffff1660e01b8152600401610783929190611b00565b602060405180830381600087803b15801561079d57600080fd5b505af11580156107b1573d6000803e3d6000fd5b505050506040513d601f19601f820116820180604052508101906107d59190611807565b507f6faf93231a456e552dbc9961f58d9713ee4f2e69d15f1975b050ef0911053a7b33600a60009054906101000a900473ffffffffffffffffffffffffffffffffffffffff16838560405161082d9493929190611abb565b60405180910390a15050565b6000821161087c576040517f08c379a000000000000000000000000000000000000000000000000000000000815260040161087390611ba1565b60405180910390fd5b6000600f60003373ffffffffffffffffffffffffffffffffffffffff1673ffffffffffffffffffffffffffffffffffffffff168152602001908152602001600020549050600042905060008214156108da576108d73361151f565b91505b83600d60003373ffffffffffffffffffffffffffffffffffffffff1673ffffffffffffffffffffffffffffffffffffffff168152602001908152602001600020546109259190611c90565b600d60003373ffffffffffffffffffffffffffffffffffffffff1673ffffffffffffffffffffffffffffffffffffffff168152602001908152602001600020819055506001600e60003373ffffffffffffffffffffffffffffffffffffffff1673ffffffffffffffffffffffffffffffffffffffff16815260200190815260200160002060006101000a81548160ff021916908315150217905550600a60009054906101000a900473ffffffffffffffffffffffffffffffffffffffff1673ffffffffffffffffffffffffffffffffffffffff166323b872dd3330876040518463ffffffff1660e01b8152600401610a1f93929190611a84565b602060405180830381600087803b158015610a3957600080fd5b505af1158015610a4d573d6000803e3d6000fd5b505050506040513d601f19601f82011682018060405250810190610a719190611807565b5060108281548110610aac577f4e487b7100000000000000000000000000000000000000000000000000000000600052603260045260246000fd5b90600052602060002090600202016001016040518060a001604052803373ffffffffffffffffffffffffffffffffffffffff16815260200186815260200183815260200160011515815260200185815250908060018154018082558091505060019003906000526020600020906005020160009091909190915060008201518160000160006101000a81548173ffffffffffffffffffffffffffffffffffffffff021916908373ffffffffffffffffffffffffffffffffffffffff160217905550602082015181600101556040820151816002015560608201518160030160006101000a81548160ff0219169083151502179055506080820151816004015550503373ffffffffffffffffffffffffffffffffffffffff167fb4caaf29adda3eefee3ad552a8e85058589bf834c7466cae4ee58787f70589ed858484604051610bf793929190611bdc565b60405180910390a250505050565b60106001816001815401808255809150500390600052602060002090505086600a60006101000a81548173ffffffffffffffffffffffffffffffffffffffff021916908373ffffffffffffffffffffffffffffffffffffffff1602179055508560009080519060200190610c7a92919061162c565b508460028190555083600381905550826004819055508160058190555080600b60006101000a81548173ffffffffffffffffffffffffffffffffffffffff021916908373ffffffffffffffffffffffffffffffffffffffff16021790555050505050505050565b600080600f60003373ffffffffffffffffffffffffffffffffffffffff1673ffffffffffffffffffffffffffffffffffffffff168152602001908152602001600020549050600060108281548110610d62577f4e487b7100000000000000000000000000000000000000000000000000000000600052603260045260246000fd5b90600052602060002090600202016001018481548110610dab577f4e487b7100000000000000000000000000000000000000000000000000000000600052603260045260246000fd5b90600052602060002090600502016040518060a00160405290816000820160009054906101000a900473ffffffffffffffffffffffffffffffffffffffff1673ffffffffffffffffffffffffffffffffffffffff1673ffffffffffffffffffffffffffffffffffffffff16815260200160018201548152602001600282015481526020016003820160009054906101000a900460ff16151515158152602001600482015481525050905060011515816060015115151415611162576000816060019015159081151581525050426009819055508060400151600954610e909190611d71565b60018190555080602001516006819055506000806000600284608001511415610ec457601e92506019915060149050610ed1565b600f9250600a9150600790505b60055460015410610f23576002836064600654610eee9190611ce6565b610ef89190611d17565b610f029190611d17565b600881905550600654600854610f189190611c90565b60078190555061101a565b60045460015410610f6957816064600654610f3e9190611ce6565b610f489190611d17565b600881905550600654600854610f5e9190611c90565b600781905550611019565b60035460015410610fbb576002816064600654610f869190611ce6565b610f909190611d17565b610f9a9190611ce6565b600881905550600654600854610fb09190611c90565b600781905550611018565b6002546001541061100d576002816064600654610fd89190611ce6565b610fe29190611d17565b610fec9190611ce6565b6008819055506006546008546110029190611c90565b600781905550611017565b6006546007819055505b5b5b5b600a60009054906101000a900473ffffffffffffffffffffffffffffffffffffffff1673ffffffffffffffffffffffffffffffffffffffff1663a9059cbb336007546040518363ffffffff1660e01b8152600401611079929190611b00565b602060405180830381600087803b15801561109357600080fd5b505af11580156110a7573d6000803e3d6000fd5b505050506040513d601f19601f820116820180604052508101906110cb9190611807565b508360200151600d60003373ffffffffffffffffffffffffffffffffffffffff1673ffffffffffffffffffffffffffffffffffffffff1681526020019081526020016000205461111b9190611d71565b600d60003373ffffffffffffffffffffffffffffffffffffffff1673ffffffffffffffffffffffffffffffffffffffff168152602001908152602001600020819055505050505b5050919050565b600d6020528060005260406000206000915090505481565b60025481565b60045481565b600e6020528060005260406000206000915054906101000a900460ff1681565b60035481565b60085481565b600b60009054906101000a900473ffffffffffffffffffffffffffffffffffffffff1673ffffffffffffffffffffffffffffffffffffffff168173ffffffffffffffffffffffffffffffffffffffff1614611249576040517f08c379a000000000000000000000000000000000000000000000000000000000815260040161124090611b81565b60405180910390fd5b8073ffffffffffffffffffffffffffffffffffffffff166108fc479081150290604051600060405180830381858888f1935050505015801561128f573d6000803e3d6000fd5b5050565b60055481565b60065481565b60075481565b60095481565b600a60009054906101000a900473ffffffffffffffffffffffffffffffffffffffff1681565b600c81815481106112e157600080fd5b906000526020600020016000915054906101000a900473ffffffffffffffffffffffffffffffffffffffff1681565b600b60009054906101000a900473ffffffffffffffffffffffffffffffffffffffff1673ffffffffffffffffffffffffffffffffffffffff168173ffffffffffffffffffffffffffffffffffffffff16146113a0576040517f08c379a000000000000000000000000000000000000000000000000000000000815260040161139790611b81565b60405180910390fd5b600a60009054906101000a900473ffffffffffffffffffffffffffffffffffffffff1673ffffffffffffffffffffffffffffffffffffffff1663a9059cbb600b60009054906101000a900473ffffffffffffffffffffffffffffffffffffffff16600a60009054906101000a900473ffffffffffffffffffffffffffffffffffffffff1673ffffffffffffffffffffffffffffffffffffffff166370a08231306040518263ffffffff1660e01b815260040161145c9190611a69565b60206040518083038186803b15801561147457600080fd5b505afa158015611488573d6000803e3d6000fd5b505050506040513d601f19601f820116820180604052508101906114ac919061190f565b6040518363ffffffff1660e01b81526004016114c9929190611b00565b602060405180830381600087803b1580156114e357600080fd5b505af11580156114f7573d6000803e3d6000fd5b505050506040513d601f19601f8201168201806040525081019061151b9190611807565b5050565b6000601060018160018154018082558091505003906000526020600020905050600060016010805490506115539190611d71565b90508260108281548110611590577f4e487b7100000000000000000000000000000000000000000000000000000000600052603260045260246000fd5b906000526020600020906002020160000160006101000a81548173ffffffffffffffffffffffffffffffffffffffff021916908373ffffffffffffffffffffffffffffffffffffffff16021790555080600f60008573ffffffffffffffffffffffffffffffffffffffff1673ffffffffffffffffffffffffffffffffffffffff1681526020019081526020016000208190555080915050919050565b82805461163890611e77565b90600052602060002090601f01602090048101928261165a57600085556116a1565b82601f1061167357805160ff19168380011785556116a1565b828001600101855582156116a1579182015b828111156116a0578251825591602001919060010190611685565b5b5090506116ae91906116b2565b5090565b5b808211156116cb5760008160009055506001016116b3565b5090565b60006116e26116dd84611c44565b611c13565b9050828152602081018484840111156116fa57600080fd5b611705848285611e35565b509392505050565b60008135905061171c81611f76565b92915050565b60008135905061173181611f8d565b92915050565b60008151905061174681611fa4565b92915050565b60008135905061175b81611fbb565b92915050565b600082601f83011261177257600080fd5b81356117828482602086016116cf565b91505092915050565b60008135905061179a81611fd2565b92915050565b6000815190506117af81611fd2565b92915050565b6000602082840312156117c757600080fd5b60006117d58482850161170d565b91505092915050565b6000602082840312156117f057600080fd5b60006117fe84828501611722565b91505092915050565b60006020828403121561181957600080fd5b600061182784828501611737565b91505092915050565b600080600080600080600060e0888a03121561184b57600080fd5b60006118598a828b0161174c565b975050602088013567ffffffffffffffff81111561187657600080fd5b6118828a828b01611761565b96505060406118938a828b0161178b565b95505060606118a48a828b0161178b565b94505060806118b58a828b0161178b565b93505060a06118c68a828b0161178b565b92505060c06118d78a828b0161170d565b91505092959891949750929550565b6000602082840312156118f857600080fd5b60006119068482850161178b565b91505092915050565b60006020828403121561192157600080fd5b600061192f848285016117a0565b91505092915050565b6000806040838503121561194b57600080fd5b60006119598582860161178b565b925050602061196a8582860161178b565b9150509250929050565b61197d81611da5565b82525050565b61198c81611dc9565b82525050565b61199b81611e11565b82525050565b60006119ac82611c74565b6119b68185611c7f565b93506119c6818560208601611e44565b6119cf81611f65565b840191505092915050565b60006119e7601183611c7f565b91507f596f7520617265206e6f74204f776e65720000000000000000000000000000006000830152602082019050919050565b6000611a27601483611c7f565b91507f43616e6e6f74207374616b65206e6f7468696e670000000000000000000000006000830152602082019050919050565b611a6381611e07565b82525050565b6000602082019050611a7e6000830184611974565b92915050565b6000606082019050611a996000830186611974565b611aa66020830185611974565b611ab36040830184611a5a565b949350505050565b6000608082019050611ad06000830187611974565b611add6020830186611974565b611aea6040830185611a5a565b611af76060830184611a5a565b95945050505050565b6000604082019050611b156000830185611974565b611b226020830184611a5a565b9392505050565b6000602082019050611b3e6000830184611983565b92915050565b6000602082019050611b596000830184611992565b92915050565b60006020820190508181036000830152611b7981846119a1565b905092915050565b60006020820190508181036000830152611b9a816119da565b9050919050565b60006020820190508181036000830152611bba81611a1a565b9050919050565b6000602082019050611bd66000830184611a5a565b92915050565b6000606082019050611bf16000830186611a5a565b611bfe6020830185611a5a565b611c0b6040830184611a5a565b949350505050565b6000604051905081810181811067ffffffffffffffff82111715611c3a57611c39611f36565b5b8060405250919050565b600067ffffffffffffffff821115611c5f57611c5e611f36565b5b601f19601f8301169050602081019050919050565b600081519050919050565b600082825260208201905092915050565b6000611c9b82611e07565b9150611ca683611e07565b9250827fffffffffffffffffffffffffffffffffffffffffffffffffffffffffffffffff03821115611cdb57611cda611ea9565b5b828201905092915050565b6000611cf182611e07565b9150611cfc83611e07565b925082611d0c57611d0b611ed8565b5b828204905092915050565b6000611d2282611e07565b9150611d2d83611e07565b9250817fffffffffffffffffffffffffffffffffffffffffffffffffffffffffffffffff0483118215151615611d6657611d65611ea9565b5b828202905092915050565b6000611d7c82611e07565b9150611d8783611e07565b925082821015611d9a57611d99611ea9565b5b828203905092915050565b6000611db082611de7565b9050919050565b6000611dc282611de7565b9050919050565b60008115159050919050565b6000611de082611da5565b9050919050565b600073ffffffffffffffffffffffffffffffffffffffff82169050919050565b6000819050919050565b6000611e1c82611e23565b9050919050565b6000611e2e82611de7565b9050919050565b82818337600083830152505050565b60005b83811015611e62578082015181840152602081019050611e47565b83811115611e71576000848401525b50505050565b60006002820490506001821680611e8f57607f821691505b60208210811415611ea357611ea2611f07565b5b50919050565b7f4e487b7100000000000000000000000000000000000000000000000000000000600052601160045260246000fd5b7f4e487b7100000000000000000000000000000000000000000000000000000000600052601260045260246000fd5b7f4e487b7100000000000000000000000000000000000000000000000000000000600052602260045260246000fd5b7f4e487b7100000000000000000000000000000000000000000000000000000000600052604160045260246000fd5b6000601f19601f8301169050919050565b611f7f81611da5565b8114611f8a57600080fd5b50565b611f9681611db7565b8114611fa157600080fd5b50565b611fad81611dc9565b8114611fb857600080fd5b50565b611fc481611dd5565b8114611fcf57600080fd5b50565b611fdb81611e07565b8114611fe657600080fd5b5056fea2646970667358221220264bf8e85b4337309b4b4d7c7d2dff4affdeaf448fa167ded2d83cfe60e1724864736f6c63430008000033",
  "immutableReferences": {},
  "source": "// SPDX-License-Identifier: MIT\npragma solidity ^0.8.0;\n\nimport \"@openzeppelin/contracts/token/ERC20/IERC20.sol\";\n\ncontract EthSwap {\n    string public name;\n    uint256 public timeDiffrence;\n    uint256 public oneDay;\n    uint256 public sixMonth;\n    uint256 public twelveMonth;\n    uint256 public twentyFourMonth;\n    uint256 public unstakeAmount;\n    uint256 public incentiveAmount;\n    uint256 public countIntrest;\n    uint256 public currentTime;\n    IERC20 public token;\n    address adminWalletAddress;\n\n    address[] public stakers;\n    mapping(address => uint256) public stakingBalance;\n    mapping(address => bool) public isStaking;\n\n    mapping(address => uint256) public stakes;\n\n    event TokensPurchased(\n        address account,\n        address token,\n        uint256 amount,\n        uint256 rateFtp\n    );\n\n    function storeConstructor(\n        IERC20 _token,\n        string memory _name,\n        uint256 _oneDay,\n        uint256 _sixMonth,\n        uint256 _twelveMonth,\n        uint256 _twentyFourMonth,\n        address _adminWalletAddress\n    ) public {\n        stakeholders.push();\n        token = _token;\n        name = _name;\n        oneDay = _oneDay;\n        sixMonth = _sixMonth;\n        twelveMonth = _twelveMonth;\n        twentyFourMonth = _twentyFourMonth;\n        adminWalletAddress = _adminWalletAddress;\n    }\n\n    struct Stake {\n        address user;\n        uint256 amount;\n        uint256 since;\n        bool claimable;\n        uint256 stakeStatus;\n    }\n    struct Stakeholder {\n        address user;\n        Stake[] address_stakes;\n    }\n\n    Stakeholder[] public stakeholders;\n\n    event Staked(\n        address indexed user,\n        uint256 amount,\n        uint256 index,\n        uint256 timestamp\n    );\n\n    function getBalance() public view returns (uint256) {\n        return address(this).balance;\n    }\n\n    function adminWithdraw(address payable recipient) external payable {\n        require(recipient == adminWalletAddress, \"You are not Owner\");\n        recipient.transfer(address(this).balance);\n    }\n\n    function adminWithdrawToken(address payable recipient) external payable {\n        require(recipient == adminWalletAddress, \"You are not Owner\");\n        token.transfer(adminWalletAddress, token.balanceOf(address(this)));\n    }\n\n    function buyTokens(uint256 _liveRate) public payable {\n        uint256 tokenAmount = msg.value * _liveRate;\n        require(token.balanceOf(address(this)) >= tokenAmount);\n\n        token.transfer(msg.sender, tokenAmount);\n\n        emit TokensPurchased(\n            msg.sender,\n            address(token),\n            tokenAmount,\n            _liveRate\n        );\n    }\n    function _addStakeholder(address staker) internal returns (uint256) {\n        stakeholders.push();\n        uint256 userIndex = stakeholders.length - 1;\n        stakeholders[userIndex].user = staker;\n        stakes[staker] = userIndex;\n        return userIndex;\n    }\n\n    function stakeTokens(uint256 _amount, uint256 status) public {\n        require(_amount > 0, \"Cannot stake nothing\");\n\n        uint256 index = stakes[msg.sender];\n        uint256 timestamp = block.timestamp;\n        if (index == 0) {\n            index = _addStakeholder(msg.sender);\n        }\n        stakingBalance[msg.sender] = stakingBalance[msg.sender] + _amount;\n        isStaking[msg.sender] = true;\n        token.transferFrom(msg.sender, address(this), _amount);\n\n        stakeholders[index].address_stakes.push(\n            Stake(msg.sender, _amount, timestamp, true, status)\n        );\n        emit Staked(msg.sender, _amount, index, timestamp);\n    }\n\n    function _withdrawStake(uint256 index) public returns (uint256) {\n        uint256 user_index = stakes[msg.sender];\n        Stake memory current_stake = stakeholders[user_index].address_stakes[\n            index\n        ];\n        if (current_stake.claimable == true) {\n            current_stake.claimable = false;\n\n            currentTime = block.timestamp;\n\n            timeDiffrence = currentTime - current_stake.since;\n\n            unstakeAmount = current_stake.amount;\n\n            uint256 ftpPercentage24M;\n            uint256 ftpPercentage12M;\n            uint256 ftpPercentage06M;\n            if (current_stake.stakeStatus == 2) {\n                ftpPercentage24M = 30;\n                ftpPercentage12M = 25;\n                ftpPercentage06M = 20;\n            } else {\n                ftpPercentage24M = 15;\n                ftpPercentage12M = 10;\n                ftpPercentage06M = 7;\n            }\n\n            if (timeDiffrence >= twentyFourMonth) {\n                countIntrest = ((unstakeAmount / 100) * ftpPercentage24M) * 2;\n                incentiveAmount = countIntrest + unstakeAmount;\n            } else if (timeDiffrence >= twelveMonth) {\n                countIntrest = ((unstakeAmount / 100) * ftpPercentage12M);\n                incentiveAmount = countIntrest + unstakeAmount;\n            } else if (timeDiffrence >= sixMonth) {\n                countIntrest = ((unstakeAmount / 100) * ftpPercentage06M) / 2;\n                incentiveAmount = countIntrest + unstakeAmount;\n            } else if (timeDiffrence >= oneDay) {\n                countIntrest = ((unstakeAmount / 100) * ftpPercentage06M) / 2;\n                incentiveAmount = countIntrest + unstakeAmount;\n            } else {\n                incentiveAmount = unstakeAmount;\n            }\n\n            token.transfer(msg.sender, incentiveAmount);\n            stakingBalance[msg.sender] =\n                stakingBalance[msg.sender] -\n                current_stake.amount;\n        }\n    }\n}\n",
  "sourcePath": "/home/abdullah/Desktop/fairTrader/fAIRTRADERBLOCKCHAIN/upgradable contract/MAINUPGRADECONTRACT/contracts/EthSwap.sol",
  "compiler": {
    "name": "solc",
    "version": "0.8.0+commit.c7dfd78e.Emscripten.clang"
  },
  "schemaVersion": "3.4.4",
  "updatedAt": "2022-03-14T10:56:33.813Z",
  "networkType": "ethereum",
  "devdoc": {
    "kind": "dev",
    "methods": {},
    "version": 1
  },
  "userdoc": {
    "kind": "user",
    "methods": {},
    "version": 1
  }
}