{
  "contractName": "EthSwap",
  "abi": [
    {
      "anonymous": false,
      "inputs": [
        {
          "indexed": true,
          "internalType": "address",
          "name": "user",
          "type": "address"
        },
        {
          "indexed": false,
          "internalType": "uint256",
          "name": "amount",
          "type": "uint256"
        },
        {
          "indexed": false,
          "internalType": "uint256",
          "name": "index",
          "type": "uint256"
        },
        {
          "indexed": false,
          "internalType": "uint256",
          "name": "timestamp",
          "type": "uint256"
        }
      ],
      "name": "Staked",
      "type": "event"
    },
    {
      "anonymous": false,
      "inputs": [
        {
          "indexed": false,
          "internalType": "address",
          "name": "account",
          "type": "address"
        },
        {
          "indexed": false,
          "internalType": "address",
          "name": "token",
          "type": "address"
        },
        {
          "indexed": false,
          "internalType": "uint256",
          "name": "amount",
          "type": "uint256"
        },
        {
          "indexed": false,
          "internalType": "uint256",
          "name": "rateFtp",
          "type": "uint256"
        }
      ],
      "name": "TokensPurchased",
      "type": "event"
    },
    {
      "inputs": [],
      "name": "countIntrest",
      "outputs": [
        {
          "internalType": "uint256",
          "name": "",
          "type": "uint256"
        }
      ],
      "stateMutability": "view",
      "type": "function",
      "constant": true
    },
    {
      "inputs": [],
      "name": "currentTime",
      "outputs": [
        {
          "internalType": "uint256",
          "name": "",
          "type": "uint256"
        }
      ],
      "stateMutability": "view",
      "type": "function",
      "constant": true
    },
    {
      "inputs": [],
      "name": "incentiveAmount",
      "outputs": [
        {
          "internalType": "uint256",
          "name": "",
          "type": "uint256"
        }
      ],
      "stateMutability": "view",
      "type": "function",
      "constant": true
    },
    {
      "inputs": [
        {
          "internalType": "address",
          "name": "",
          "type": "address"
        }
      ],
      "name": "isStaking",
      "outputs": [
        {
          "internalType": "bool",
          "name": "",
          "type": "bool"
        }
      ],
      "stateMutability": "view",
      "type": "function",
      "constant": true
    },
    {
      "inputs": [],
      "name": "name",
      "outputs": [
        {
          "internalType": "string",
          "name": "",
          "type": "string"
        }
      ],
      "stateMutability": "view",
      "type": "function",
      "constant": true
    },
    {
      "inputs": [],
      "name": "oneDay",
      "outputs": [
        {
          "internalType": "uint256",
          "name": "",
          "type": "uint256"
        }
      ],
      "stateMutability": "view",
      "type": "function",
      "constant": true
    },
    {
      "inputs": [],
      "name": "sixMonth",
      "outputs": [
        {
          "internalType": "uint256",
          "name": "",
          "type": "uint256"
        }
      ],
      "stateMutability": "view",
      "type": "function",
      "constant": true
    },
    {
      "inputs": [
        {
          "internalType": "uint256",
          "name": "",
          "type": "uint256"
        }
      ],
      "name": "stakeholders",
      "outputs": [
        {
          "internalType": "address",
          "name": "user",
          "type": "address"
        }
      ],
      "stateMutability": "view",
      "type": "function",
      "constant": true
    },
    {
      "inputs": [
        {
          "internalType": "uint256",
          "name": "",
          "type": "uint256"
        }
      ],
      "name": "stakers",
      "outputs": [
        {
          "internalType": "address",
          "name": "",
          "type": "address"
        }
      ],
      "stateMutability": "view",
      "type": "function",
      "constant": true
    },
    {
      "inputs": [
        {
          "internalType": "address",
          "name": "",
          "type": "address"
        }
      ],
      "name": "stakes",
      "outputs": [
        {
          "internalType": "uint256",
          "name": "",
          "type": "uint256"
        }
      ],
      "stateMutability": "view",
      "type": "function",
      "constant": true
    },
    {
      "inputs": [
        {
          "internalType": "address",
          "name": "",
          "type": "address"
        }
      ],
      "name": "stakingBalance",
      "outputs": [
        {
          "internalType": "uint256",
          "name": "",
          "type": "uint256"
        }
      ],
      "stateMutability": "view",
      "type": "function",
      "constant": true
    },
    {
      "inputs": [],
      "name": "timeDiffrence",
      "outputs": [
        {
          "internalType": "uint256",
          "name": "",
          "type": "uint256"
        }
      ],
      "stateMutability": "view",
      "type": "function",
      "constant": true
    },
    {
      "inputs": [],
      "name": "token",
      "outputs": [
        {
          "internalType": "contract IERC20",
          "name": "",
          "type": "address"
        }
      ],
      "stateMutability": "view",
      "type": "function",
      "constant": true
    },
    {
      "inputs": [],
      "name": "twelveMonth",
      "outputs": [
        {
          "internalType": "uint256",
          "name": "",
          "type": "uint256"
        }
      ],
      "stateMutability": "view",
      "type": "function",
      "constant": true
    },
    {
      "inputs": [],
      "name": "twentyFourMonth",
      "outputs": [
        {
          "internalType": "uint256",
          "name": "",
          "type": "uint256"
        }
      ],
      "stateMutability": "view",
      "type": "function",
      "constant": true
    },
    {
      "inputs": [],
      "name": "unstakeAmount",
      "outputs": [
        {
          "internalType": "uint256",
          "name": "",
          "type": "uint256"
        }
      ],
      "stateMutability": "view",
      "type": "function",
      "constant": true
    },
    {
      "inputs": [
        {
          "internalType": "contract IERC20",
          "name": "_token",
          "type": "address"
        },
        {
          "internalType": "string",
          "name": "_name",
          "type": "string"
        },
        {
          "internalType": "uint256",
          "name": "_oneDay",
          "type": "uint256"
        },
        {
          "internalType": "uint256",
          "name": "_sixMonth",
          "type": "uint256"
        },
        {
          "internalType": "uint256",
          "name": "_twelveMonth",
          "type": "uint256"
        },
        {
          "internalType": "uint256",
          "name": "_twentyFourMonth",
          "type": "uint256"
        }
      ],
      "name": "storeConstructor",
      "outputs": [],
      "stateMutability": "nonpayable",
      "type": "function"
    },
    {
      "inputs": [
        {
          "internalType": "uint256",
          "name": "_liveRate",
          "type": "uint256"
        }
      ],
      "name": "buyTokens",
      "outputs": [],
      "stateMutability": "payable",
      "type": "function",
      "payable": true
    },
    {
      "inputs": [
        {
          "internalType": "uint256",
          "name": "_amount",
          "type": "uint256"
        },
        {
          "internalType": "uint256",
          "name": "status",
          "type": "uint256"
        }
      ],
      "name": "stakeTokens",
      "outputs": [],
      "stateMutability": "nonpayable",
      "type": "function"
    },
    {
      "inputs": [
        {
          "internalType": "uint256",
          "name": "index",
          "type": "uint256"
        }
      ],
      "name": "_withdrawStake",
      "outputs": [
        {
          "internalType": "uint256",
          "name": "",
          "type": "uint256"
        }
      ],
      "stateMutability": "nonpayable",
      "type": "function"
    }
  ],
  "bytecode": "0x608060405234801561001057600080fd5b50611b93806100206000396000f3fe60806040526004361061011f5760003560e01c806369c4d162116100a0578063be4d0ede11610064578063be4d0ede146103f0578063cae5d73b1461041b578063d18e81b314610446578063fc0c546a14610471578063fd5e6dd11461049c5761011f565b806369c4d162146103095780636f49712b14610332578063986feefa1461036f57806399e1dcc31461039a578063a41409c8146103c55761011f565b80633b7b6188116100e75780633b7b61881461021057806345b701981461023957806345bc78ab146102765780634bd9351b146102b35780636118fa9f146102de5761011f565b806306fdde031461012457806316934fc41461014f5780631d6b8b721461018c5780631fa58c26146101c95780633610724e146101f4575b600080fd5b34801561013057600080fd5b506101396104d9565b604051610146919061171c565b60405180910390f35b34801561015b57600080fd5b50610176600480360381019061017191906113f0565b610567565b604051610183919061175e565b60405180910390f35b34801561019857600080fd5b506101b360048036038101906101ae91906114e3565b61057f565b6040516101c09190611626565b60405180910390f35b3480156101d557600080fd5b506101de6105cd565b6040516101eb919061175e565b60405180910390f35b61020e600480360381019061020991906114e3565b6105d3565b005b34801561021c57600080fd5b5061023760048036038101906102329190611535565b6107ad565b005b34801561024557600080fd5b50610260600480360381019061025b91906114e3565b610b79565b60405161026d919061175e565b60405180910390f35b34801561028257600080fd5b5061029d600480360381019061029891906113f0565b611001565b6040516102aa919061175e565b60405180910390f35b3480156102bf57600080fd5b506102c8611019565b6040516102d5919061175e565b60405180910390f35b3480156102ea57600080fd5b506102f361101f565b604051610300919061175e565b60405180910390f35b34801561031557600080fd5b50610330600480360381019061032b9190611442565b611025565b005b34801561033e57600080fd5b50610359600480360381019061035491906113f0565b6110c6565b60405161036691906116e6565b60405180910390f35b34801561037b57600080fd5b506103846110e6565b604051610391919061175e565b60405180910390f35b3480156103a657600080fd5b506103af6110ec565b6040516103bc919061175e565b60405180910390f35b3480156103d157600080fd5b506103da6110f2565b6040516103e7919061175e565b60405180910390f35b3480156103fc57600080fd5b506104056110f8565b604051610412919061175e565b60405180910390f35b34801561042757600080fd5b506104306110fe565b60405161043d919061175e565b60405180910390f35b34801561045257600080fd5b5061045b611104565b604051610468919061175e565b60405180910390f35b34801561047d57600080fd5b5061048661110a565b6040516104939190611701565b60405180910390f35b3480156104a857600080fd5b506104c360048036038101906104be91906114e3565b611130565b6040516104d09190611626565b60405180910390f35b600080546104e690611a02565b80601f016020809104026020016040519081016040528092919081815260200182805461051290611a02565b801561055f5780601f106105345761010080835404028352916020019161055f565b820191906000526020600020905b81548152906001019060200180831161054257829003601f168201915b505050505081565b600e6020528060005260406000206000915090505481565b600f818154811061058f57600080fd5b90600052602060002090600202016000915090508060000160009054906101000a900473ffffffffffffffffffffffffffffffffffffffff16905081565b60015481565b600081346105e191906118b4565b905080600a60009054906101000a900473ffffffffffffffffffffffffffffffffffffffff1673ffffffffffffffffffffffffffffffffffffffff166370a08231306040518263ffffffff1660e01b815260040161063f9190611626565b60206040518083038186803b15801561065757600080fd5b505afa15801561066b573d6000803e3d6000fd5b505050506040513d601f19601f8201168201806040525081019061068f919061150c565b101561069a57600080fd5b600a60009054906101000a900473ffffffffffffffffffffffffffffffffffffffff1673ffffffffffffffffffffffffffffffffffffffff1663a9059cbb33836040518363ffffffff1660e01b81526004016106f79291906116bd565b602060405180830381600087803b15801561071157600080fd5b505af1158015610725573d6000803e3d6000fd5b505050506040513d601f19601f820116820180604052508101906107499190611419565b507f6faf93231a456e552dbc9961f58d9713ee4f2e69d15f1975b050ef0911053a7b33600a60009054906101000a900473ffffffffffffffffffffffffffffffffffffffff1683856040516107a19493929190611678565b60405180910390a15050565b600082116107f0576040517f08c379a00000000000000000000000000000000000000000000000000000000081526004016107e79061173e565b60405180910390fd5b6000600e60003373ffffffffffffffffffffffffffffffffffffffff1673ffffffffffffffffffffffffffffffffffffffff1681526020019081526020016000205490506000429050600082141561084e5761084b3361116f565b91505b83600c60003373ffffffffffffffffffffffffffffffffffffffff1673ffffffffffffffffffffffffffffffffffffffff16815260200190815260200160002054610899919061182d565b600c60003373ffffffffffffffffffffffffffffffffffffffff1673ffffffffffffffffffffffffffffffffffffffff168152602001908152602001600020819055506001600d60003373ffffffffffffffffffffffffffffffffffffffff1673ffffffffffffffffffffffffffffffffffffffff16815260200190815260200160002060006101000a81548160ff021916908315150217905550600a60009054906101000a900473ffffffffffffffffffffffffffffffffffffffff1673ffffffffffffffffffffffffffffffffffffffff166323b872dd3330876040518463ffffffff1660e01b815260040161099393929190611641565b602060405180830381600087803b1580156109ad57600080fd5b505af11580156109c1573d6000803e3d6000fd5b505050506040513d601f19601f820116820180604052508101906109e59190611419565b50600f8281548110610a20577f4e487b7100000000000000000000000000000000000000000000000000000000600052603260045260246000fd5b90600052602060002090600202016001016040518060a001604052803373ffffffffffffffffffffffffffffffffffffffff16815260200186815260200183815260200160011515815260200185815250908060018154018082558091505060019003906000526020600020906005020160009091909190915060008201518160000160006101000a81548173ffffffffffffffffffffffffffffffffffffffff021916908373ffffffffffffffffffffffffffffffffffffffff160217905550602082015181600101556040820151816002015560608201518160030160006101000a81548160ff0219169083151502179055506080820151816004015550503373ffffffffffffffffffffffffffffffffffffffff167fb4caaf29adda3eefee3ad552a8e85058589bf834c7466cae4ee58787f70589ed858484604051610b6b93929190611779565b60405180910390a250505050565b600080600e60003373ffffffffffffffffffffffffffffffffffffffff1673ffffffffffffffffffffffffffffffffffffffff1681526020019081526020016000205490506000600f8281548110610bfa577f4e487b7100000000000000000000000000000000000000000000000000000000600052603260045260246000fd5b90600052602060002090600202016001018481548110610c43577f4e487b7100000000000000000000000000000000000000000000000000000000600052603260045260246000fd5b90600052602060002090600502016040518060a00160405290816000820160009054906101000a900473ffffffffffffffffffffffffffffffffffffffff1673ffffffffffffffffffffffffffffffffffffffff1673ffffffffffffffffffffffffffffffffffffffff16815260200160018201548152602001600282015481526020016003820160009054906101000a900460ff16151515158152602001600482015481525050905060011515816060015115151415610ffa576000816060019015159081151581525050426009819055508060400151600954610d28919061190e565b60018190555080602001516006819055506000806000600284608001511415610d5c57601e92506019915060149050610d69565b600f9250600a9150600790505b60055460015410610dbb576002836064600654610d869190611883565b610d9091906118b4565b610d9a91906118b4565b600881905550600654600854610db0919061182d565b600781905550610eb2565b60045460015410610e0157816064600654610dd69190611883565b610de091906118b4565b600881905550600654600854610df6919061182d565b600781905550610eb1565b60035460015410610e53576002816064600654610e1e9190611883565b610e2891906118b4565b610e329190611883565b600881905550600654600854610e48919061182d565b600781905550610eb0565b60025460015410610ea5576002816064600654610e709190611883565b610e7a91906118b4565b610e849190611883565b600881905550600654600854610e9a919061182d565b600781905550610eaf565b6006546007819055505b5b5b5b600a60009054906101000a900473ffffffffffffffffffffffffffffffffffffffff1673ffffffffffffffffffffffffffffffffffffffff1663a9059cbb336007546040518363ffffffff1660e01b8152600401610f119291906116bd565b602060405180830381600087803b158015610f2b57600080fd5b505af1158015610f3f573d6000803e3d6000fd5b505050506040513d601f19601f82011682018060405250810190610f639190611419565b508360200151600c60003373ffffffffffffffffffffffffffffffffffffffff1673ffffffffffffffffffffffffffffffffffffffff16815260200190815260200160002054610fb3919061190e565b600c60003373ffffffffffffffffffffffffffffffffffffffff1673ffffffffffffffffffffffffffffffffffffffff168152602001908152602001600020819055505050505b5050919050565b600c6020528060005260406000206000915090505481565b60025481565b60045481565b600f6001816001815401808255809150500390600052602060002090505085600a60006101000a81548173ffffffffffffffffffffffffffffffffffffffff021916908373ffffffffffffffffffffffffffffffffffffffff160217905550846000908051906020019061109a92919061127c565b508360028190555082600381905550826002819055508160048190555080600581905550505050505050565b600d6020528060005260406000206000915054906101000a900460ff1681565b60035481565b60085481565b60055481565b60065481565b60075481565b60095481565b600a60009054906101000a900473ffffffffffffffffffffffffffffffffffffffff1681565b600b818154811061114057600080fd5b906000526020600020016000915054906101000a900473ffffffffffffffffffffffffffffffffffffffff1681565b6000600f6001816001815401808255809150500390600052602060002090505060006001600f805490506111a3919061190e565b905082600f82815481106111e0577f4e487b7100000000000000000000000000000000000000000000000000000000600052603260045260246000fd5b906000526020600020906002020160000160006101000a81548173ffffffffffffffffffffffffffffffffffffffff021916908373ffffffffffffffffffffffffffffffffffffffff16021790555080600e60008573ffffffffffffffffffffffffffffffffffffffff1673ffffffffffffffffffffffffffffffffffffffff1681526020019081526020016000208190555080915050919050565b82805461128890611a02565b90600052602060002090601f0160209004810192826112aa57600085556112f1565b82601f106112c357805160ff19168380011785556112f1565b828001600101855582156112f1579182015b828111156112f05782518255916020019190600101906112d5565b5b5090506112fe9190611302565b5090565b5b8082111561131b576000816000905550600101611303565b5090565b600061133261132d846117e1565b6117b0565b90508281526020810184848401111561134a57600080fd5b6113558482856119c0565b509392505050565b60008135905061136c81611b01565b92915050565b60008151905061138181611b18565b92915050565b60008135905061139681611b2f565b92915050565b600082601f8301126113ad57600080fd5b81356113bd84826020860161131f565b91505092915050565b6000813590506113d581611b46565b92915050565b6000815190506113ea81611b46565b92915050565b60006020828403121561140257600080fd5b60006114108482850161135d565b91505092915050565b60006020828403121561142b57600080fd5b600061143984828501611372565b91505092915050565b60008060008060008060c0878903121561145b57600080fd5b600061146989828a01611387565b965050602087013567ffffffffffffffff81111561148657600080fd5b61149289828a0161139c565b95505060406114a389828a016113c6565b94505060606114b489828a016113c6565b93505060806114c589828a016113c6565b92505060a06114d689828a016113c6565b9150509295509295509295565b6000602082840312156114f557600080fd5b6000611503848285016113c6565b91505092915050565b60006020828403121561151e57600080fd5b600061152c848285016113db565b91505092915050565b6000806040838503121561154857600080fd5b6000611556858286016113c6565b9250506020611567858286016113c6565b9150509250929050565b61157a81611942565b82525050565b61158981611954565b82525050565b6115988161199c565b82525050565b60006115a982611811565b6115b3818561181c565b93506115c38185602086016119cf565b6115cc81611af0565b840191505092915050565b60006115e460148361181c565b91507f43616e6e6f74207374616b65206e6f7468696e670000000000000000000000006000830152602082019050919050565b61162081611992565b82525050565b600060208201905061163b6000830184611571565b92915050565b60006060820190506116566000830186611571565b6116636020830185611571565b6116706040830184611617565b949350505050565b600060808201905061168d6000830187611571565b61169a6020830186611571565b6116a76040830185611617565b6116b46060830184611617565b95945050505050565b60006040820190506116d26000830185611571565b6116df6020830184611617565b9392505050565b60006020820190506116fb6000830184611580565b92915050565b6000602082019050611716600083018461158f565b92915050565b60006020820190508181036000830152611736818461159e565b905092915050565b60006020820190508181036000830152611757816115d7565b9050919050565b60006020820190506117736000830184611617565b92915050565b600060608201905061178e6000830186611617565b61179b6020830185611617565b6117a86040830184611617565b949350505050565b6000604051905081810181811067ffffffffffffffff821117156117d7576117d6611ac1565b5b8060405250919050565b600067ffffffffffffffff8211156117fc576117fb611ac1565b5b601f19601f8301169050602081019050919050565b600081519050919050565b600082825260208201905092915050565b600061183882611992565b915061184383611992565b9250827fffffffffffffffffffffffffffffffffffffffffffffffffffffffffffffffff0382111561187857611877611a34565b5b828201905092915050565b600061188e82611992565b915061189983611992565b9250826118a9576118a8611a63565b5b828204905092915050565b60006118bf82611992565b91506118ca83611992565b9250817fffffffffffffffffffffffffffffffffffffffffffffffffffffffffffffffff048311821515161561190357611902611a34565b5b828202905092915050565b600061191982611992565b915061192483611992565b92508282101561193757611936611a34565b5b828203905092915050565b600061194d82611972565b9050919050565b60008115159050919050565b600061196b82611942565b9050919050565b600073ffffffffffffffffffffffffffffffffffffffff82169050919050565b6000819050919050565b60006119a7826119ae565b9050919050565b60006119b982611972565b9050919050565b82818337600083830152505050565b60005b838110156119ed5780820151818401526020810190506119d2565b838111156119fc576000848401525b50505050565b60006002820490506001821680611a1a57607f821691505b60208210811415611a2e57611a2d611a92565b5b50919050565b7f4e487b7100000000000000000000000000000000000000000000000000000000600052601160045260246000fd5b7f4e487b7100000000000000000000000000000000000000000000000000000000600052601260045260246000fd5b7f4e487b7100000000000000000000000000000000000000000000000000000000600052602260045260246000fd5b7f4e487b7100000000000000000000000000000000000000000000000000000000600052604160045260246000fd5b6000601f19601f8301169050919050565b611b0a81611942565b8114611b1557600080fd5b50565b611b2181611954565b8114611b2c57600080fd5b50565b611b3881611960565b8114611b4357600080fd5b50565b611b4f81611992565b8114611b5a57600080fd5b5056fea264697066735822122038c1dd7ebcc2f25f6c17e11ef8b2355f0660acea656831fe87d614f649a9d06b64736f6c63430008000033",
  "immutableReferences": {},
  "source": "// SPDX-License-Identifier: MIT\npragma solidity ^0.8.0;\n\nimport \"@openzeppelin/contracts/token/ERC20/IERC20.sol\";\n\ncontract EthSwap {\n    string public name;\n    uint256 public timeDiffrence;\n    uint256 public oneDay;\n    uint256 public sixMonth;\n    uint256 public twelveMonth;\n    uint256 public twentyFourMonth;\n    uint256 public unstakeAmount;\n    uint256 public incentiveAmount;\n    uint256 public countIntrest;\n    uint256 public currentTime;\n    IERC20 public token;\n\n    address[] public stakers;\n    mapping(address => uint256) public stakingBalance;\n    mapping(address => bool) public isStaking;\n\n    mapping(address => uint256) public stakes;\n\n    event TokensPurchased(\n        address account,\n        address token,\n        uint256 amount,\n        uint256 rateFtp\n    );\n\n    function storeConstructor(\n        IERC20 _token,\n        string memory _name,\n        uint256 _oneDay,\n        uint256 _sixMonth,\n        uint256 _twelveMonth,\n        uint256 _twentyFourMonth\n    ) public {\n        stakeholders.push();\n        token = _token;\n        name = _name;\n        oneDay = _oneDay;\n        sixMonth = _sixMonth;\n        oneDay = _sixMonth;\n        twelveMonth = _twelveMonth;\n        twentyFourMonth = _twentyFourMonth;\n    }\n\n    struct Stake {\n        address user;\n        uint256 amount;\n        uint256 since;\n        bool claimable;\n        uint256 stakeStatus;\n    }\n    struct Stakeholder {\n        address user;\n        Stake[] address_stakes;\n    }\n\n    Stakeholder[] public stakeholders;\n\n    event Staked(\n        address indexed user,\n        uint256 amount,\n        uint256 index,\n        uint256 timestamp\n    );\n\n    function buyTokens(uint256 _liveRate) public payable {\n        uint256 tokenAmount = msg.value * _liveRate;\n        // uint256 tokenAmount = msg.value * rate;\n        require(token.balanceOf(address(this)) >= tokenAmount);\n\n        token.transfer(msg.sender, tokenAmount);\n\n        emit TokensPurchased(msg.sender, address(token), tokenAmount, _liveRate);\n        // emit TokensPurchased(msg.sender, address(token), tokenAmount, rate);\n    }\n\n//   function buyTokens() public payable {\n//     uint256 tokenAmount = msg.value * rate;\n//     require(token.balanceOf(address(this)) >= tokenAmount);\n\n//     token.transfer(msg.sender, tokenAmount);\n\n//     emit TokensPurchased(msg.sender, address(token), tokenAmount, rate);\n//   }\n\n    function _addStakeholder(address staker) internal returns (uint256) {\n        stakeholders.push();\n        uint256 userIndex = stakeholders.length - 1;\n        stakeholders[userIndex].user = staker;\n        stakes[staker] = userIndex;\n        return userIndex;\n    }\n\n    function stakeTokens(uint256 _amount, uint256 status) public {\n        require(_amount > 0, \"Cannot stake nothing\");\n\n        uint256 index = stakes[msg.sender];\n        uint256 timestamp = block.timestamp;\n        if (index == 0) {\n            index = _addStakeholder(msg.sender);\n        }\n        stakingBalance[msg.sender] = stakingBalance[msg.sender] + _amount;\n        isStaking[msg.sender] = true;\n        token.transferFrom(msg.sender, address(this), _amount);\n\n        stakeholders[index].address_stakes.push(\n            Stake(msg.sender, _amount, timestamp, true, status)\n        );\n        emit Staked(msg.sender, _amount, index, timestamp);\n    }\n\n    function _withdrawStake(uint256 index)\n        public\n        returns (uint256)\n    {\n        uint256 user_index = stakes[msg.sender];\n        Stake memory current_stake = stakeholders[user_index].address_stakes[\n            index\n        ];\n        // require(\n        //     current_stake.amount >= amount,\n        //     \"Staking: Cannot withdraw more than you have staked\"\n        // );\n        // ******************************************************************************************************************* //\n        if (current_stake.claimable == true) {\n            current_stake.claimable = false;\n\n            currentTime = block.timestamp;\n\n            timeDiffrence = currentTime - current_stake.since;\n\n            unstakeAmount = current_stake.amount;\n\n            uint256 ftpPercentage24M;\n            uint256 ftpPercentage12M;\n            uint256 ftpPercentage06M;\n            if (current_stake.stakeStatus == 2) {\n                ftpPercentage24M = 30;\n                ftpPercentage12M = 25;\n                ftpPercentage06M = 20;\n            } else {\n                ftpPercentage24M = 15;\n                ftpPercentage12M = 10;\n                ftpPercentage06M = 7;\n            }\n\n            if (timeDiffrence >= twentyFourMonth) {\n                countIntrest = ((unstakeAmount / 100) * ftpPercentage24M) * 2;\n                incentiveAmount = countIntrest + unstakeAmount;\n\n            } else if (timeDiffrence >= twelveMonth) {\n                countIntrest = ((unstakeAmount / 100) * ftpPercentage12M);\n                incentiveAmount = countIntrest + unstakeAmount;\n\n            } else if (timeDiffrence >= sixMonth) {\n                countIntrest = ((unstakeAmount / 100) * ftpPercentage06M) / 2;\n                incentiveAmount = countIntrest + unstakeAmount;\n\n            } else if (timeDiffrence >= oneDay) {\n                countIntrest = ((unstakeAmount / 100) * ftpPercentage06M) / 2;\n                incentiveAmount = countIntrest + unstakeAmount;\n\n            } else {\n                incentiveAmount = unstakeAmount;\n            }\n\n            token.transfer(msg.sender, incentiveAmount);\n            // token.transfer(msg.sender, current_stake.amount + 10000000000000000000);\n            stakingBalance[msg.sender] =\n                stakingBalance[msg.sender] -\n                current_stake.amount;\n        }\n    }\n}\n",
  "sourcePath": "/home/abdullah/Desktop/fairTrader/fAIRTRADERBLOCKCHAIN/upgradable contract/MAINUPGRADECONTRACT/contracts/EthSwap.sol",
  "compiler": {
    "name": "solc",
    "version": "0.8.0+commit.c7dfd78e.Emscripten.clang"
  },
  "schemaVersion": "3.2.2",
  "updatedAt": "2022-02-26T07:21:03.021Z",
  "networkType": "ethereum",
  "devdoc": {
    "kind": "dev",
    "methods": {},
    "version": 1
  },
  "userdoc": {
    "kind": "user",
    "methods": {},
    "version": 1
  }
}